:020000040800F2
:1000000018040020450100083702000833020008E8
:10001000350200088D0100083D03000800000000C3
:100020000000000000000000000000006102000865
:100030008F0100080000000039020008E9020008F2
:100040005F0100085F0100085F0100085F01000810
:100050005F0100085F0100085F0100085F01000800
:100060005F0100085F0100085F0100085F010008F0
:100070005F0100085F0100085F0100085F010008E0
:100080005F0100085F0100085F0100085F010008D0
:100090005F0100085F0100085F0100085F010008C0
:1000A0005F0100085F0100085F0100085F010008B0
:1000B0005F0100085F0100085F0100085F010008A0
:1000C0005F0100085F0100085F0100085F01000890
:1000D0005F0100085F0100085F0100085F01000880
:1000E0005F0100085F0100085F0100085F01000870
:1000F0005F0100085F0100085F0100085F01000860
:100100005F0100085F0100085F0100085F0100084F
:100110005F0100085F0100085F0100085F0100083F
:100120005F0100085F0100085F0100085F0100082F
:10013000DFF80CD000F018F80048004795030008DD
:10014000180400200648804706480047FEE7FEE7FF
:10015000FEE7FEE7FEE7FEE7FEE7FEE7FEE7FEE777
:10016000ED02000831010008064C074D06E0E0688A
:1001700040F0010394E8070098471034AC42F6D3EE
:10018000FFF7DAFFC8030008E8030008FEE770473E
:10019000F0B5CA78002502F00F03D20601D58A789F
:1001A00013430A784FF00F0E12F0FF0F4FF00102C9
:1001B0001CD004680F8802FA05F63740B74211D107
:1001C0004FEA850C0EFA0CF724EA070703FA0CF441
:1001D0003C43CF78282F02D0482F02D002E046615E
:1001E00000E006616D1C082DE4D304600C88FF2C30
:1001F0001ED944685FF0000606F1080702FA07F509
:100200000F882F40AF420FD14FEA860C0EFA0CF741
:10021000BC4303FA0CF73C43CF78282F00D145614B
:10022000CF78482F00D10561761C082EE4D34460B6
:10023000F0BDFEE7FEE7704770470000044A002962
:10024000916901D0014300E0814391617047000052
:10025000001002400149C8717047000000100240C0
:10026000704700000CB500211D4801910091026803
:1002700042F4803202604FF4A063026802F400325C
:100280000092019A521C0192009A12B9019A9A4264
:10029000F3D10268920320D50121009111490A6827
:1002A00042F010020A600A6822F003020A600A683B
:1002B0000A6041684160416841604168416041684D
:1002C00021F003014160416841F001014160416852
:1002D000C1F381010129FAD10CBD00910CBD0000D0
:1002E0000010024000200240704700000F4810B587
:1002F000016841F00101016041680D4A114041600F
:1003000001680C4A11400160016821F480210160FC
:10031000416821F4FE0141604FF41F018160FFF745
:10032000A1FF05494FF00060086010BD00100240B9
:100330000000FFF8FFFFF6FE08ED00E0FEE702E038
:1003400008C8121F08C1002AFAD170477047002060
:1003500001E001C1121F002AFBD1704710B50C4CFF
:1003600001212068FFF76AFF04F108016068FFF7C8
:100370000FFF0C3401212068FFF760FF04F1080132
:100380006068FFF705FFBDE810400620FFF762BF79
:1003900000000020FFF7E2FF0A48012101614161EE
:1003A000016141610161416101614161016141613D
:1003B000016141610161416101614161016141612D
:1003C000ECE7000000100140E803000800000020F6
:1003D000180000003E030008000400081800002078
:1003E000000400004E03000810000000001001404F
:1003F0000100031004000000000801400001031880
:0400000508000131BD
:00000001FF
